:020000040800F2
:1000000000280020D11000086110000867100008C7
:100010006D1000087310000879100008000000003F
:100020000000000000000000000000007F10000839
:100030008B1000080000000097100008A3100008B3
:1000400019110008191100081911000819110008E8
:1000500019110008191100081911000819110008D8
:1000600019110008191100081911000819110008C8
:1000700019110008191100081911000819110008B8
:1000800019110008191100081911000819110008A8
:100090001911000819110008191100081911000898
:1000A0001911000819110008191100081911000888
:1000B000B110000819110008000000001911000813
:1000C00019110008000000000000000019110008CC
:1000D00000000000191100081911000800000000BC
:1000E000191100081911000819110008000000007A
:1000F0000000000000000000000000000000000000
:0C01000000000000000000005FF808F1A3
:10010C0010B5054C237833B9044B13B10448AFF345
:10011C0000800123237010BD30000020000000007F
:10012C004427000808B5034B1BB103490348AFF340
:10013C00008008BD000000003400002044270008A7
:10014C0080B483B000AF78607B68002B0BD14C4B34
:10015C00DB684B4A03F47F43D360494BDB68484A66
:10016C0043F04003D3607B68012B0BD1444BDB681D
:10017C00434A03F47F43D360414BDB68404A43F06E
:10018C007903D3607B68022B0BD13D4BDB683C4A77
:10019C0003F47F43D3603A4BDB68394A43F02403C2
:1001AC00D3607B68032B0BD1354BDB68344A03F4EB
:1001BC007F43D360324BDB68314A43F03003D3606A
:1001CC007B68042B0BD12E4BDB682D4A03F47F4349
:1001DC00D3602B4BDB682A4A43F01903D3607B684E
:1001EC00052B0BD1264BDB68254A03F47F43D360E8
:1001FC00234BDB68224A43F01203D3607B68062B47
:10020C000BD11F4BDB681E4A03F47F43D3601C4B9E
:10021C00DB681B4A43F00203D3607B68072B0BD1CE
:10022C00174BDB68164A03F47F43D360144BDB682F
:10023C00134A43F07803D3607B68082B0BD1104B27
:10024C00DB680F4A03F47F43D3600D4BDB680C4A29
:10025C0043F08003D3607B68092B0BD1084BDB6820
:10026C00074A03F47F43D360054BDB68044A43F031
:10027C009003D36000BF0C37BD4680BC704700BFF5
:10028C00000C014080B500AF4D4B1B68032B00F2F6
:10029C00878001A252F823F0B5020008F30200088F
:1002AC00310300086F03000800224021454801F08B
:1002BC0019FA01228021434801F014FA01224FF46B
:1002CC008071404801F00EFA01224FF400713D4854
:1002DC0001F008FA3A4B1B683B4A52F82330184697
:1002EC00FFF72EFF5DE001224021364801F0FAF9BC
:1002FC0000228021334801F0F5F901224FF480717E
:10030C00304801F0EFF901224FF400712D4801F053
:10031C00E9F92B4B1B682C4A52F823301846FFF78F
:10032C000FFF3EE001224021264801F0DBF90122BB
:10033C008021244801F0D6F900224FF48071214825
:10034C0001F0D0F901224FF400711E4801F0CAF9F6
:10035C001B4B1B681C4A52F823301846FFF7F0FE63
:10036C001FE001224021174801F0BCF90122802135
:10037C00144801F0B7F901224FF48071114801F0D3
:10038C00B1F900224FF400710E4801F0ABF90C4B9F
:10039C001B680D4A52F823301846FFF7D1FE00E0D7
:1003AC0000BF074B1B6801335A4203F0030302F0F2
:1003BC00030258BF5342024A136000BF80BD00BF06
:1003CC004C000020000801400000002080B400AF69
:1003DC00254B1B68254A82FB03129210DB17D11A9E
:1003EC00224B83FB01239A10CB17D21A13469B0086
:1003FC0013445B00CA1A1E4B1A601B4B19681B4B2B
:10040C0083FB01239A10CB17D21A13469B0013447B
:10041C005B00CA1A164B5A60164B1B68134A82FBB8
:10042C0003129210DB17D11A104B83FB01239A1085
:10043C00CB17D21A13469B0013445B00CA1A0C4B01
:10044C009A600C4B1968094B83FB01239A10CB174C
:10045C00D21A13469B0013445B00CA1A044BDA6091
:10046C0000BFBD4680BC70471800002067666666FA
:10047C00000000201C00002080B483B000AF786026
:10048C001D4A7B6812F833201C4B1A701A4A7B6881
:10049C00DB0013445A78194B5A70174A7B68DB00FF
:1004AC0013449A78154B9A70134A7B68DB001344FB
:1004BC00DA78124BDA70104A7B68DB0013441A7935
:1004CC000E4B1A710C4A7B68DB0013445A790B4BA8
:1004DC005A71094A7B68DB0013449A79074B9A716D
:1004EC00054A7B68DB001344DA79044BDA7100BFF0
:1004FC000C37BD4680BC70476C27000810000020EC
:10050C0080B483B000AF80237B604D4B1B781A46C0
:10051C007B6813407B604A4B1B785B00DAB27B68CC
:10052C00DB11DBB21344DAB2454B1A7080237B60CB
:10053C00434B5B781A467B6813407B60404B5B787F
:10054C005B00DAB27B68DB11DBB21344DAB23C4BF2
:10055C005A7080237B603A4B9B781A467B68134019
:10056C007B60374B9B785B00DAB27B68DB11DBB2CC
:10057C001344DAB2324B9A7080237B60304BDB78B9
:10058C001A467B6813407B602D4BDB785B00DAB23C
:10059C007B68DB11DBB21344DAB2294BDA708023AF
:1005AC007B60274B1B791A467B6813407B60244B7E
:1005BC001B795B00DAB27B68DB11DBB21344DAB275
:1005CC001F4B1A7180237B601D4B5B791A467B682D
:1005DC0013407B601A4B5B795B00DAB27B68DB11F2
:1005EC00DBB21344DAB2164B5A7180237B60144B86
:1005FC009B791A467B6813407B60114B9B795B009F
:10060C00DAB27B68DB11DBB21344DAB20C4B9A71B1
:10061C0080237B600A4BDB791A467B6813407B6036
:10062C00074BDB795B00DAB27B68DB11DBB213447E
:10063C00DAB2034BDA7100BF0C37BD4680BC704791
:10064C001000002080B400AF0F4BDB680E4ADBB209
:10065C00D3600D4BDB680D4A12680D498A5C12029F
:10066C001146094A0B44D360084B1B6801335A42AC
:10067C0003F0070302F0070258BF5342034A13600A
:10068C0000BFBD4680BC7047000C014058000020E4
:10069C001000002080B500AFFFF7D4FFCF4B1B68D4
:1006AC00072B00F28B8101A252F823F0D906000827
:1006BC003707000895070008F307000851080008E1
:1006CC00AF0800080D0900086B090008002204217E
:1006DC00C34801F007F801220821C14801F002F8D3
:1006EC0001224FF48061BE4800F0FCFF01224FF460
:1006FC000061BB4800F0F6FF01224FF48051B8486E
:10070C0000F0F0FF01224FF40051B54800F0EAFF71
:10071C0001224FF48041B24800F0E4FF01224FF473
:10072C000041AF4800F0DEFF49E101220421AC4852
:10073C0000F0D8FF00220821A94800F0D3FF0122C5
:10074C004FF48061A64800F0CDFF01224FF4006108
:10075C00A34800F0C7FF01224FF48051A04800F0DD
:10076C00C1FF01224FF400519D4800F0BBFF012254
:10077C004FF480419A4800F0B5FF01224FF400413C
:10078C00974800F0AFFF1AE101220421944800F0D1
:10079C00A9FF01220821924800F0A4FF00224FF487
:1007AC0080618F4800F09EFF01224FF400618C485D
:1007BC0000F098FF01224FF48051894800F092FF1D
:1007CC0001224FF40051864800F08CFF01224FF4B7
:1007DC008041834800F086FF01224FF4004180489D
:1007EC0000F080FFEBE0012204217D4800F07AFF4D
:1007FC00012208217A4800F075FF01224FF4806134
:10080C00774800F06FFF00224FF40061744800F04D
:10081C0069FF01224FF48051714800F063FF0122FF
:10082C004FF400516E4800F05DFF01224FF48041FF
:10083C006B4800F057FF01224FF40041684800F06C
:10084C0051FFBCE001220421654800F04BFF01225E
:10085C000821634800F046FF01224FF48061604894
:10086C0000F040FF01224FF400615D4800F03AFFB8
:10087C0000224FF480515A4800F034FF01224FF40B
:10088C000051574800F02EFF01224FF4804154488C
:10089C0000F028FF01224FF40041514800F022FFE4
:1008AC008DE0012204214E4800F01CFF012208219A
:1008BC004B4800F017FF01224FF48061484800F0CC
:1008CC0011FF01224FF40061454800F00BFF01229B
:1008DC004FF48051424800F005FF00224FF40051C4
:1008EC003F4800F0FFFE01224FF480413C4800F0ED
:1008FC00F9FE01224FF40041394800F0F3FE5EE0AE
:10090C0001220421364800F0EDFE01220821344872
:10091C0000F0E8FE01224FF48061314800F0E2FE65
:10092C0001224FF400612E4800F0DCFE01224FF44E
:10093C0080512B4800F0D6FE01224FF4005128487C
:10094C0000F0D0FE00224FF48041254800F0CAFE92
:10095C0001224FF40041224800F0C4FE2FE0012296
:10096C0004211F4800F0BEFE012208211C4800F0A3
:10097C00B9FE01224FF48061194800F0B3FE012248
:10098C004FF40061164800F0ADFE01224FF4805187
:10099C00134800F0A7FE01224FF40051104800F05C
:1009AC00A1FE01224FF480410D4800F09BFE002275
:1009BC004FF400410A4800F095FE00E000BF074BE1
:1009CC001B6801335A4203F0070302F0070258BFB9
:1009DC005342024A136000BF80BD00BF5400002088
:1009EC000008014080B500AF01220421194800F035
:1009FC0079FE01220821174800F074FE01224FF401
:100A0C008061144800F06EFE01224FF40061114821
:100A1C0000F068FE01224FF480510E4800F062FE97
:100A2C0001224FF400510B4800F05CFE01224FF400
:100A3C008041084800F056FE01224FF40041054861
:100A4C0000F050FE044BDB68034ADBB2D36000BFFE
:100A5C0080BD00BF00080140000C014080B500AF14
:100A6C000A4B1B681846FFF707FD084B1B68591CFF
:100A7C00074B83FB0132CB17D21A13465B0013448E
:100A8C005B00CA1A014B1A6000BF80BD50000020E9
:100A9C00ABAAAA2A80B483B000AF78607B68084AFE
:100AAC0082FB03129210DB17D31A064A1360064B13
:100ABC0000221A6000BF0C37BD4680BC704700BFD7
:100ACC00676666665C0000206000002080B483B01E
:100ADC0000AF78607B68084A82FB03129210DB1728
:100AEC00D31A064A1360064B00221A6000BF0C375B
:100AFC00BD4680BC704700BF676666666400002018
:100B0C006800002080B483B000AF78607B68084A2E
:100B1C0082FB03129210DB17D31A064A1360064BA2
:100B2C0000221A6000BF0C37BD4680BC704700BF66
:100B3C00676666666C0000207000002080B483B08D
:100B4C0000AF78607B68084A82FB03129210DB17B7
:100B5C00D31A064A1360064B00221A6000BF0C37EA
:100B6C00BD4680BC704700BF676666667400002097
:100B7C007800002080B483B000AF78607B68084AAE
:100B8C0082FB03129210DB17D31A064A1360064B32
:100B9C0000221A6000BF0C37BD4680BC704700BFF6
:100BAC00676666667C0000208000002080B400AF81
:100BBC00294B1B68002B0BDD274B1B68013B264A7E
:100BCC001360254B1B68002B02DC244B01221A609E
:100BDC00234B1B68002B0BDD214B1B68013B204A70
:100BEC0013601F4B1B68002B02DC1E4B01221A608A
:100BFC001D4B1B68002B0BDD1B4B1B68013B1A4A62
:100C0C001360194B1B68002B02DC184B01221A6075
:100C1C00174B1B68002B0BDD154B1B68013B144A53
:100C2C001360134B1B68002B02DC124B01221A6061
:100C3C00114B1B68002B0BDD0F4B1B68013B0E4A45
:100C4C0013600D4B1B68002B02DC0C4B01221A604D
:100C5C0000BFBD4680BC70475C00002060000020D7
:100C6C0064000020680000206C0000207000002050
:100C7C0074000020780000207C0000208000002000
:100C8C0080B500AF00F044FA00F0A0F800F026F9AF
:100C9C0000F0D8F8424801F08FF9002210214148A9
:100CAC0000F020FD4FF47A70FFF7F4FEFA20FFF706
:100CBC000DFF4FF4FA70FFF725FF1020FFF73EFFF2
:100CCC004FF4FA60FFF756FFFFF780FBFFF78AFE41
:100CDC00354B1B68012B3AD1344B1B680133334A1B
:100CEC001360324B1B683B2B07DD304B00221A6024
:100CFC002F4B1B6801332E4A13602D4B1B683B2B6B
:100D0C0007DD2B4B00221A602A4B1B680133294A42
:100D1C001360284B1B68172B02DD264B00221A6030
:100D2C00FFF754FB4FF47A70FFF7B4FE1F4B1968B2
:100D3C00214B83FB01239A10CB17D21A13469B002D
:100D4C0013445B00CA1A002A01D1FFF787FE1B4B24
:100D5C001B68012B04D1FFF795FAFA20FFF7B6FEBA
:100D6C00174B1B68012B07D110210E4800F0D2FC49
:100D7C004FF4FA70FFF7C6FE124B1B68012B04D11F
:100D8C001020FFF7DBFEFFF785FC0F4B1B68012BD8
:100D9C009ED14FF4FA60FFF7EDFEFFF7B1FB97E73A
:100DAC00840000200008014060000020200000208A
:100DBC001C00002018000020676666666800002092
:100DCC0070000020780000208000002080B590B0DA
:100DDC0000AF07F1180328220021184601F0A4FCEB
:100DEC003B1D00221A605A609A60DA601A61022375
:100DFC00BB610123BB621023FB6200237B6307F101
:100E0C001803184600F0A0FC0346002B01D000F09C
:100E1C00C5F80F237B600023BB600023FB6000231D
:100E2C003B6100237B613B1D0021184600F00CFF49
:100E3C000346002B01D000F0B1F800BF4037BD468F
:100E4C0080BD000080B586B000AF07F1080300221A
:100E5C001A605A609A60DA603B4600221A605A6047
:100E6C001D4B4FF080421A601B4B41F63F725A608B
:100E7C00194B00229A60184B0A22DA60164B00229A
:100E8C001A61154B00229A61134801F045F803468C
:100E9C00002B01D000F082F84FF48053BB6007F1B7
:100EAC00080319460C4801F0DBF90346002B01D06E
:100EBC0000F074F800233B6000237B603B4619462E
:100ECC00054801F0A3FB0346002B01D000F066F8A7
:100EDC0000BF1837BD4680BD8400002080B586B0A9
:100EEC0000AF07F1080300221A605A609A60DA60BA
:100EFC00224B9B69214A43F0040393611F4B9B696E
:100F0C0003F004037B607B681C4B9B691B4A43F01A
:100F1C0008039361194B9B6903F008033B603B6822
:100F2C0000224FF6FC71164800F0DCFB00224FF655
:100F3C007F71144800F0D6FB4FF6FC73BB600123A5
:100F4C00FB6000233B6102237B6107F10803194618
:100F5C000B4800F04DFA4FF67F73BB600123FB602A
:100F6C0000233B6102237B6107F108031946054806
:100F7C0000F03EFA00BF1837BD4680BD001002409D
:100F8C0000080140000C014080B582B000AF7860D1
:100F9C00FFF70CFE00BF0837BD4680BD80B400AF24
:100FAC0072B600BFFEE7000080B485B000AF154BF1
:100FBC009B69144A43F001039361124B9B6903F044
:100FCC000103BB60BB680F4BDB690E4A43F08053D7
:100FDC00D3610C4BDB6903F080537B607B680A4B5D
:100FEC005B68FB60FB6823F0E063FB60FB6843F02D
:100FFC008063FB60044AFB68536000BF1437BD4636
:10100C0080BC7047001002400000014080B584B0E5
:10101C0000AF78607B681B68B3F1804F13D10C4B29
:10102C00DB690B4A43F00103D361094BDB6903F025
:10103C000103FB60FB68002200211C2000F0A1F9D9
:10104C001C2000F0BAF900BF1037BD4680BD00BFB0
:10105C000010024080B400AFFEE780B400AFFEE7A2
:10106C0080B400AFFEE780B400AFFEE780B400AF01
:10107C00FEE780B400AF00BFBD4680BC704780B4B3
:10108C0000AF00BFBD4680BC704780B400AF00BF4E
:10109C00BD4680BC704780B500AF00F07FF800BF44
:1010AC0080BD000080B500AF024800F0D1FF00BF4A
:1010BC0080BD00BF8400002080B400AF00BFBD46DF
:1010CC0080BC70470C480D490D4A002302E0D458EF
:1010DC00C4500433C4188C42F9D30A4A0A4C002376
:1010EC0001E013600432A242FBD3FFF7E5FF01F0ED
:1010FC00F7FAFFF7C5FD7047000000203000002014
:10110C005428000830000020D0000020FEE700002A
:10111C0080B500AF084B1B68074A43F010031360FF
:10112C00032000F023F90F2000F008F8FFF73CFF34
:10113C000023184680BD00BF0020024080B582B05D
:10114C0000AF7860124B1A68124B1B7819464FF49B
:10115C007A73B3FBF1F3B2FBF3F3184600F03BF9EF
:10116C000346002B01D001230EE07B680F2B0AD81D
:10117C00002279684FF0FF3000F003F9064A7B68D3
:10118C001360002300E0012318460837BD4680BDDC
:10119C00240000202C0000202800002080B400AF88
:1011AC00054B1B781A46054B1B681344034A136006
:1011BC0000BFBD4680BC70472C000020CC00002036
:1011CC0080B400AF024B1B681846BD4680BC70470C
:1011DC00CC00002080B485B000AF78607B6803F051
:1011EC000703FB600C4BDB68BB60BA684FF6FF0370
:1011FC001340BB60FB681A02BB68134343F0BF6328
:10120C0043F40033BB60044ABB68D36000BF14379F
:10121C00BD4680BC704700BF00ED00E080B400AF5D
:10122C00044BDB681B0A03F007031846BD4680BC61
:10123C00704700BF00ED00E080B483B000AF034600
:10124C00FB7197F90730002B0BDBFB7903F01F02C6
:10125C00064997F907305B09012000FA02F241F8C0
:10126C00232000BF0C37BD4680BC704700E100E076
:10127C0080B483B000AF03463960FB7197F9073037
:10128C00002B0ADB3B68DAB20C4997F907301201E4
:10129C00D2B20B4483F800230AE03B68DAB2084967
:1012AC00FB7903F00F03043B1201D2B20B441A7604
:1012BC0000BF0C37BD4680BC704700BF00E100E0AA
:1012CC0000ED00E080B489B000AFF860B9607A60DE
:1012DC00FB6803F00703FB61FB69C3F10703042BF5
:1012EC0028BF0423BB61FB690433062B02D9FB69BD
:1012FC00033B00E000237B614FF0FF32BB6902FA35
:10130C0003F3DA43BB681A407B699A404FF0FF3114
:10131C007B6901FA03F3D9437B680B4013431846EE
:10132C002437BD4680BC704780B582B000AF786072
:10133C007B68013BB3F1807F01D301230FE00A4AA4
:10134C007B68013B53600F214FF0FF30FFF790FF9C
:10135C00054B00229A60044B07221A6000231846A2
:10136C000837BD4680BD00BF10E000E080B582B0FC
:10137C0000AF78607868FFF72DFF00BF0837BD46D7
:10138C0080BD80B586B000AF0346B9607A60FB7350
:10139C0000237B61FFF742FF78617A68B96878694E
:1013AC00FFF790FF024697F90F3011461846FFF7EA
:1013BC005FFF00BF1837BD4680BD80B582B000AF5F
:1013CC000346FB7197F907301846FFF735FF00BF4E
:1013DC000837BD4680BD80B582B000AF78607868B4
:1013EC00FFF7A2FF034618460837BD4680BD000034
:1013FC0080B48BB000AF7860396000237B6200232F
:10140C003B6248E101227B6A02FA03F3FB613B6811
:10141C001B68FA691340BB61BA69FB699A4240F0D8
:10142C0037813B685B68A34A93425ED0A14A9342E2
:10143C0075D8A14A934258D09F4A93426FD89F4A7D
:10144C00934252D09D4A934269D89D4A93424CD0C4
:10145C009B4A934263D89B4A934246D0994A934203
:10146C005DD8122B2AD8122B59D801A252F823F08E
:10147C00F7140008D1140008E3140008251500081F
:10148C002B1500082B1500082B1500082B15000830
:10149C002B1500082B1500082B1500082B15000820
:1014AC002B1500082B1500082B1500082B15000810
:1014BC002B150008D9140008ED140008824A934239
:1014CC0013D02CE03B68DB683B6229E03B68DB68AF
:1014DC0004333B6224E03B68DB6808333B621FE06B
:1014EC003B68DB680C333B621AE03B689B68002B63
:1014FC0002D104233B6213E03B689B68012B05D1AE
:10150C0008233B627B68FA691A6109E008233B6295
:10151C007B68FA695A6103E000233B6200E000BF7C
:10152C00BB69FF2B01D87B6801E07B6804337B61CE
:10153C00BB69FF2B02D87B6A9B0002E07B6A083BED
:10154C009B003B617B691A680F213B6901FA03F32D
:10155C00DB431A40396A3B6901FA03F31A437B698E
:10156C001A603B685B6803F08053002B00F090809E
:10157C00564B9B69554A43F001039361534B9B694E
:10158C0003F00103BB60BB68514A7B6A9B080233C2
:10159C0052F82330FB607B6A03F003039B000F229D
:1015AC0002FA03F3DB43FA681340FB607B68494A99
:1015BC0093420DD07B68484A934207D07B68474AD8
:1015CC00934201D1022304E0032302E0012300E053
:1015DC0000237A6A02F0030292009340FA681343E4
:1015EC00FB603B497B6A9B080233FA6841F8232075
:1015FC003B685B6803F48033002B06D0384B1A68C9
:10160C003749BB6913430B6006E0354B1A68BB695D
:10161C00DB43334913400B603B685B6803F40033D6
:10162C00002B06D02E4B5A682D49BB6913434B60D7
:10163C0006E02B4B5A68BB69DB43294913404B60CE
:10164C003B685B6803F48013002B06D0244B9A682C
:10165C002349BB6913438B6006E0214B9A68BB6935
:10166C00DB431F4913408B603B685B6803F400133A
:10167C00002B06D01A4BDA681949BB691343CB60AF
:10168C0006E0174BDA68BB69DB4315491340CB60A6
:10169C007B6A01337B623B681A687B6A22FA03F32C
:1016AC00002B7FF4AFAE00BF00BF2C37BD4680BC13
:1016BC00704700BF000032100000311000002210F3
:1016CC000000211000001210000011100010024048
:1016DC000000014000080140000C014000100140D6
:1016EC000004014080B483B000AF78600B467B806F
:1016FC0013467B707B78002B03D07A887B681A6149
:10170C0003E07B881A047B681A6100BF0C37BD4666
:10171C0080BC704780B485B000AF78600B467B808E
:10172C007B68DB68FB607A88FB6813401A04FB68F3
:10173C00D9437B880B401A437B681A6100BF14376E
:10174C00BD4680BC7047000080B586B000AF7860A5
:10175C007B68002B01D101236CE27B681B6803F0D2
:10176C000103002B00F08780924B5B6803F00C03A5
:10177C00042B0CD08F4B5B6803F00C03082B12D19D
:10178C008C4B5B6803F48033B3F5803F0BD1894BF2
:10179C001B6803F40033002B6CD07B685B68002B58
:1017AC0068D1012346E27B685B68B3F5803F06D1C4
:1017BC00804B1B687F4A43F4803313602EE07B68B8
:1017CC005B68002B0CD17B4B1B687A4A23F480336B
:1017DC001360784B1B68774A23F4802313601DE059
:1017EC007B685B68B3F5A02F0CD1724B1B68714AF8
:1017FC0043F4802313606F4B1B686E4A43F48033B1
:10180C0013600BE06B4B1B686A4A23F48033136044
:10181C00684B1B68674A23F4802313607B685B6802
:10182C00002B13D0FFF7CCFC386108E0FFF7C8FCA5
:10183C0002463B69D31A642B01D90323FAE15D4BB1
:10184C001B6803F40033002BF0D014E0FFF7B8FC56
:10185C00386108E0FFF7B4FC02463B69D31A642BED
:10186C0001D90323E6E1534B1B6803F40033002B2F
:10187C00F0D100E000BF7B681B6803F00203002B73
:10188C0063D04C4B5B6803F00C03002B0BD0494B23
:10189C005B6803F00C03082B1CD1464B5B6803F40C
:1018AC008033002B16D1434B1B6803F00203002B33
:1018BC0005D07B681B69012B01D00123BAE13D4B9C
:1018CC001B6823F0F8027B685B69DB003949134322
:1018DC000B603AE07B681B69002B20D0364B012251
:1018EC001A60FFF76DFC386108E0FFF769FC0246EF
:1018FC003B69D31A022B01D903239BE12D4B1B68A7
:10190C0003F00203002BF0D02A4B1B6823F0F802E3
:10191C007B685B69DB00274913430B6015E0264BA2
:10192C0000221A60FFF74CFC386108E0FFF748FC16
:10193C0002463B69D31A022B01D903237AE11D4BD2
:10194C001B6803F00203002BF0D17B681B6803F0CB
:10195C000803002B3AD07B689B69002B19D0174BDE
:10196C0001221A60FFF72CFC386108E0FFF728FC15
:10197C0002463B69D31A022B01D903235AE10D4BC2
:10198C005B6A03F00203002BF0D0012000F0A6FAF2
:10199C001CE00A4B00221A60FFF712FC38610FE0C2
:1019AC00FFF70EFC02463B69D31A022B08D903231E
:1019BC0040E100BF0010024000004242800442425D
:1019CC009E4B5B6A03F00203002BE9D17B681B681A
:1019DC0003F00403002B00F0A6800023FB75974B4B
:1019EC00DB6903F08053002B0DD1944BDB69934AD8
:1019FC0043F08053D361914BDB6903F08053BB60A0
:101A0C00BB680123FB758E4B1B6803F48073002BA2
:101A1C0018D18B4B1B688A4A43F480731360FFF711
:101A2C00CFFB386108E0FFF7CBFB02463B69D31ACA
:101A3C00642B01D90323FDE0814B1B6803F48073F5
:101A4C00002BF0D07B68DB68012B06D17B4B1B6A2B
:101A5C007A4A43F0010313622DE07B68DB68002BAC
:101A6C000CD1764B1B6A754A23F001031362734B3E
:101A7C001B6A724A23F0040313621CE07B68DB6868
:101A8C00052B0CD16D4B1B6A6C4A43F0040313629B
:101A9C006A4B1B6A694A43F0010313620BE0674B04
:101AAC001B6A664A23F001031362644B1B6A634A88
:101ABC0023F0040313627B68DB68002B15D0FFF75F
:101ACC007FFB38610AE0FFF77BFB02463B69D31AC8
:101ADC0041F28832934201D90323ABE0574B1B6A86
:101AEC0003F00203002BEED014E0FFF769FB386122
:101AFC000AE0FFF765FB02463B69D31A41F28832D4
:101B0C00934201D9032395E04C4B1B6A03F002036B
:101B1C00002BEED1FB7D012B05D1484BDB69474AED
:101B2C0023F08053D3617B68DB69002B00F081804C
:101B3C00424B5B6803F00C03082B61D07B68DB69BC
:101B4C00022B46D13F4B00221A60FFF739FB38615C
:101B5C0008E0FFF735FB02463B69D31A022B01D98B
:101B6C00032367E0354B1B6803F00073002BF0D1A7
:101B7C007B681B6AB3F5803F08D1304B5B6823F45C
:101B8C0000327B689B682D4913434B602B4B5B6881
:101B9C0023F474127B68196A7B685B6A0B432749D0
:101BAC0013434B60274B01221A60FFF709FB386186
:101BBC0008E0FFF705FB02463B69D31A022B01D95B
:101BCC00032337E01D4B1B6803F00073002BF0D090
:101BDC002FE01C4B00221A60FFF7F2FA386108E084
:101BEC00FFF7EEFA02463B69D31A022B01D9032305
:101BFC0020E0124B1B6803F00073002BF0D118E0AF
:101C0C007B68DB69012B01D1012313E00B4B5B6873
:101C1C00FB60FB6803F480327B681B6A9A4206D136
:101C2C00FB6803F470127B685B6A9A4201D0012353
:101C3C0000E0002318461837BD4680BD0010024056
:101C4C00007000406000424280B584B000AF786004
:101C5C0039607B68002B01D10123D0E06A4B1B68F3
:101C6C0003F007033A689A4210D9674B1B6823F0BC
:101C7C00070265493B6813430B60634B1B6803F019
:101C8C0007033A689A4201D00123B8E07B681B68CD
:101C9C0003F00203002B20D07B681B6803F00403C5
:101CAC00002B05D0594B5B68584A43F4E0635360F2
:101CBC007B681B6803F00803002B05D0534B5B6853
:101CCC00524A43F460535360504B5B6823F0F0026C
:101CDC007B689B684D4913434B607B681B6803F022
:101CEC000103002B40D07B685B68012B07D1474B6D
:101CFC001B6803F40033002B15D101237FE07B68B4
:101D0C005B68022B07D1414B1B6803F00073002B5F
:101D1C0009D1012373E03D4B1B6803F00203002B38
:101D2C0001D101236BE0394B5B6823F003027B6824
:101D3C005B68364913434B60FFF742FAF8600AE0E0
:101D4C00FFF73EFA0246FB68D31A41F288329342FF
:101D5C0001D9032353E02D4B5B6803F00C027B6825
:101D6C005B689B009A42EBD1274B1B6803F007037F
:101D7C003A689A4210D2244B1B6823F0070222497E
:101D8C003B6813430B60204B1B6803F007033A6856
:101D9C009A4201D0012332E07B681B6803F00403F4
:101DAC00002B08D0194B5B6823F4E0627B68DB687E
:101DBC00164913434B607B681B6803F00803002B28
:101DCC0009D0124B5B6823F460527B681B69DB0003
:101DDC000E4913434B6000F021F802460B4B5B6835
:101DEC001B0903F00F030A49CB5C22FA03F3094ADF
:101DFC001360094B1B681846FFF7A0F9002318461F
:101E0C001037BD4680BD00BF0020024000100240CC
:101E1C003C280008240000202800002090B48AB040
:101E2C0000AF2A4B3C1D0FCB84E80F0040F201237E
:101E3C003B800023FB610023BB6100237B620023FA
:101E4C007B6100233B62224B5B68FB61FB6903F007
:101E5C000C03042B02D0082B03D02DE01D4B3B624E
:101E6C002DE0FB699B0C03F00F0307F128021344D0
:101E7C0013F8243C7B61FB6903F48033002B13D0F3
:101E8C00134B5B685B0C03F0010307F1280213444E
:101E9C0013F8283CBB617B690E4A02FB03F2BB6959
:101EAC00B2FBF3F37B6204E07B690B4A02FB03F3A6
:101EBC007B627B6A3B6202E0064B3B6200BF3B6A83
:101ECC0018462837BD4690BC704700BF5C270008F9
:101EDC000010024000127A0000093D0080B485B069
:101EEC0000AF78600A4B1B680A4AA2FB03235B0A0B
:101EFC007A6802FB03F3FB6000BFFB685A1EFA60B2
:101F0C00002BF9D100BF00BF1437BD4680BC704711
:101F1C0024000020D34D621080B582B000AF7860F1
:101F2C007B68002B01D1012341E07B6893F83D30A5
:101F3C00DBB2002B06D17B68002283F83C2078684A
:101F4C00FFF764F87B68022283F83D207B681A68EF
:101F5C007B6804331946104600F06AFA7B6801224C
:101F6C0083F846207B68012283F83E207B6801229F
:101F7C0083F83F207B68012283F840207B68012294
:101F8C0083F841207B68012283F842207B68012280
:101F9C0083F843207B68012283F844207B6801226C
:101FAC0083F845207B68012283F83D2000231846E6
:101FBC000837BD4680BD000080B485B000AF7860A6
:101FCC007B6893F83D30DBB2012B01D0012335E067
:101FDC007B68022283F83D207B681B68DA687B688B
:101FEC001B6842F00102DA607B681B68164A934258
:101FFC0009D07B681B68B3F1804F04D07B681B68E9
:10200C00124A934211D17B681B689B6803F007034B
:10201C00FB60FB68062B10D07B681B681A687B681A
:10202C001B6842F001021A6007E07B681B681A68A3
:10203C007B681B6842F001021A60002318461437B3
:10204C00BD4680BC704700BF002C0140000400401E
:10205C0080B582B000AF78607B681B681B6903F0A9
:10206C000203022B22D17B681B68DB6803F002039E
:10207C00022B1BD17B681B686FF002021A617B6814
:10208C0001221A777B681B689B6903F00303002B02
:10209C0003D0786800F0B1F905E0786800F0A4F995
:1020AC00786800F0B3F97B6800221A777B681B68AC
:1020BC001B6903F00403042B22D17B681B68DB68CB
:1020CC0003F00403042B1BD17B681B686FF0040224
:1020DC001A617B6802221A777B681B689B6903F480
:1020EC004073002B03D0786800F087F905E078681E
:1020FC0000F07AF9786800F089F97B6800221A7789
:10210C007B681B681B6903F00803082B22D17B68D2
:10211C001B68DB6803F00803082B1BD17B681B686A
:10212C006FF008021A617B6804221A777B681B68BF
:10213C00DB6903F00303002B03D0786800F05DF932
:10214C0005E0786800F050F9786800F05FF97B687A
:10215C0000221A777B681B681B6903F01003102B95
:10216C0022D17B681B68DB6803F01003102B1BD19A
:10217C007B681B686FF010021A617B6808221A7763
:10218C007B681B68DB6903F44073002B03D0786811
:10219C0000F033F905E0786800F026F9786800F073
:1021AC0035F97B6800221A777B681B681B6903F082
:1021BC000103012B0ED17B681B68DB6803F0010364
:1021CC00012B07D17B681B686FF001021A617868DC
:1021DC00FEF7DAFE7B681B681B6903F08003802B1B
:1021EC000ED17B681B68DB6803F08003802B07D162
:1021FC007B681B686FF080021A61786800F067FAE0
:10220C007B681B681B6903F04003402B0ED17B6875
:10221C001B68DB6803F04003402B07D17B681B680D
:10222C006FF040021A61786800F0F9F87B681B685F
:10223C001B6903F02003202B0ED17B681B68DB6825
:10224C0003F02003202B07D17B681B686FF0200262
:10225C001A61786800F032FA00BF0837BD4680BDBD
:10226C0080B584B000AF786039607B6893F83C30FF
:10227C00012B01D10223B3E07B68012283F83C20BF
:10228C007B68022283F83D207B681B689B68FB609F
:10229C00FB6823F07703FB60FB6823F47F43FB6050
:1022AC007B681B68FA689A603B681B68B3F5005F33
:1022BC003ED0B3F5005F00F28780B3F5805F00F08D
:1022CC008580B3F5805F7FD8702B1AD0702B7BD8AC
:1022DC00602B50D0602B77D8502B3CD0502B73D820
:1022EC00402B58D0402B6FD8302B64D0302B6BD870
:1022FC00202B60D0202B67D8002B5CD0102B5AD011
:10230C0062E07B6818683B6899683B685A683B6870
:10231C00DB6800F05CF97B681B689B68FB60FB6802
:10232C0043F07703FB607B681B68FA689A604EE0A9
:10233C007B6818683B6899683B685A683B68DB683F
:10234C0000F045F97B681B689A687B681B6842F44F
:10235C0080429A603BE07B6818683B6859683B6830
:10236C00DB681A4600F0BCF87B681B6850211846E5
:10237C0000F013F92BE07B6818683B6859683B68E0
:10238C00DB681A4600F0DAF87B681B686021184697
:10239C0000F003F91BE07B6818683B6859683B68E0
:1023AC00DB681A4600F09CF87B681B6840211846D5
:1023BC0000F0F3F80BE07B681A683B681B68194661
:1023CC00104600F0EAF802E000BF00E000BF7B68B6
:1023DC00012283F83D207B68002283F83C200023F7
:1023EC0018461037BD4680BD80B483B000AF78600E
:1023FC0000BF0C37BD4680BC704780B483B000AFC3
:10240C00786000BF0C37BD4680BC704780B483B089
:10241C0000AF786000BF0C37BD4680BC704780B4FD
:10242C0083B000AF786000BF0C37BD4680BC7047EE
:10243C0080B485B000AF786039607B681B68FB6046
:10244C007B68254A934207D07B68B3F1804F03D059
:10245C007B68224A934208D1FB6823F07003FB602F
:10246C003B685B68FA681343FB607B681A4A9342CB
:10247C0007D07B68B3F1804F03D07B68174A934237
:10248C0008D1FB6823F44073FB603B68DB68FA6897
:10249C001343FB60FB6823F080023B685B691343CA
:1024AC00FB607B68FA681A603B689A687B68DA6242
:1024BC003B681A687B689A627B68074A934203D12F
:1024CC003B681A697B681A637B6801225A6100BFFA
:1024DC001437BD4680BC7047002C014000040040FE
:1024EC0080B487B000AFF860B9607A60FB681B6A93
:1024FC007B61FB681B6A23F00102FB681A62FB68B4
:10250C009B693B613B6923F0F0033B617B681B01DA
:10251C003A6913433B617B6923F00A037B617A6957
:10252C00BB6813437B61FB683A699A61FB687A6903
:10253C001A6200BF1C37BD4680BC704780B487B0A0
:10254C0000AFF860B9607A60FB681B6A23F0100278
:10255C00FB681A62FB689B697B61FB681B6A3B61C9
:10256C007B6923F470437B617B681B037A6913439B
:10257C007B613B6923F0A0033B61BB681B013A699B
:10258C0013433B61FB687A699A61FB683A691A628A
:10259C0000BF1C37BD4680BC704780B485B000AF0F
:1025AC00786039607B689B68FB60FB6823F0700384
:1025BC00FB603A68FB68134343F00703FB607B68DE
:1025CC00FA689A6000BF1437BD4680BC704780B46F
:1025DC0087B000AFF860B9607A603B60FB689B68BD
:1025EC007B617B6923F47F437B613B681A027B68C8
:1025FC001A43BB6813437A6913437B61FB687A699E
:10260C009A6000BF1C37BD4680BC704780B485B053
:10261C0000AF786039607B6893F83C30012B01D1B6
:10262C00022341E07B68012283F83C207B68022274
:10263C0083F83D207B681B685B68FB607B681B68CC
:10264C009B68BB60FB6823F07003FB603B681B68F6
:10265C00FA681343FB607B681B68FA685A607B68F6
:10266C001B68144A934209D07B681B68B3F1804FF6
:10267C0004D07B681B68104A93420CD1BB6823F0D2
:10268C008003BB603B685B68BA681343BB607B68C4
:10269C001B68BA689A607B68012283F83D207B68CE
:1026AC00002283F83C20002318461437BD4680BC1A
:1026BC00704700BF002C01400004004080B483B080
:1026CC0000AF786000BF0C37BD4680BC704780B44B
:1026DC0083B000AF786000BF0C37BD4680BC70473C
:1026EC0070B500260C4D0D4C641BA410A64209D1EC
:1026FC0000F022F800260A4D0A4C641BA410A642D6
:10270C0005D170BD55F8043B98470136EEE755F8F6
:10271C00043B98470136F2E74C2800084C28000887
:10272C004C2800085028000803460244934200D16C
:10273C00704703F8011BF9E7F8B500BFF8BC08BCFB
:10274C009E467047F8B500BFF8BC08BC9E46704763
:10275C0002030405060708090A0B0C0D0E0F1010D6
:10276C00E7C3DB9981999999879B9B879B9999835F
:10277C00E3CD9F9F9F9FCDE38793999999999387D9
:10278C00819F9F819F9F9F81819F9F819F9F9F9FE3
:10279C00000000000000000000000000000000002D
:1027AC00000000000000000000000000000000001D
:1027BC00000000000000000000000000000000000D
:1027CC0000000000000000000000000000000000FD
:1027DC0000000000000000000000000000000000ED
:1027EC0000000000000000000000000000000000DD
:1027FC0000000000000000000000000000000000CD
:10280C0000000000000000000000000000000000BC
:10281C0000000000000000000000000000000000AC
:10282C00000000000000000000000000000000009C
:10283C000000000000000000010203040607080964
:04284C00310100084E
:042850000D0100086E
:10285400010000000200000003000000040000006A
:10286400FFFFFFFFFFFFFFFF170000003B0000001A
:10287400320000000024F4001000000001000000F9
:04000005080010D10E
:00000001FF
